:020000040800F2
:200000000808002091010008990100089B0100089D0100089F010008A101000800000000D8
:20002000000000000000000000000000A3010008A501000800000000A7010008691600082F
:20004000AB010008AB010008AB010008AB010008AB010008AB010008AB010008AB01000800
:20006000AB010008AB010008AB010008AB010008AB010008AB010008AB010008AB010008E0
:20008000AB010008AB010008AB010008AB010008AB010008AB010008AB010008AB010008C0
:2000A00000000000AB010008AB010008AB010008AB010008AB010008AB010008AB01000854
:2000C000AB010008AB010008AB010008AB010008AB010008AB010008AB010008AB01000880
:2000E000AB010008AB010008AB010008AB010008AB01000800F002F800F03AF80AA090E84E
:20010000000C82448344AAF10107DA4501D100F02FF8AFF2090EBAE80F0013F0010F18BF48
:20012000FB1A43F001031847401E0000601E0000103A24BF78C878C1FAD8520724BF30C88C
:2001400030C144BF04680C60704700000023002400250026103A28BF78C1FBD8520728BF0D
:2001600030C148BF0B6070471FB51FBD10B510BD00F0A3F81146FFF7F7FF01F0E3FD00F094
:20018000C1F803B4FFF7F2FF03BC00F0C9F800000948804709480047FEE7FEE7FEE7FEE754
:2001A000FEE7FEE7FEE7FEE7FEE7FEE704480549054A064B7047000009170008F5000008CB
:2001C0000802002008080020080400200804002010B5203AC0F00B80B1E81850203AA0E830
:2001E0001850B1E81850A0E81850BFF4F5AF5FEA027C24BFB1E81850A0E8185044BF18C9D0
:2002000018C0BDE810405FEA827C24BF51F8043B40F8043B08BF7047D20728BF31F8023B44
:2002200048BF11F8012B28BF20F8023B48BF00F8012B70474FF0013C50F8042B51F8043BE9
:200240009A4221D1A2EB0C03934313EACC1317D150F8042B51F8043B9A4215D1A2EB0C033D
:20026000934313EACC130BD150F8042B51F8043B9A4209D1A2EB0C03934313EACC13DBD042
:200280004FF00000704700BFD01A01BAB1FA81F101F0180122FA01F0CB40C1F12001DBB265
:2002A000C0B2C01A2CFA01F3D11A914311EAC311E6D17047704770477047754600F02CF8E8
:2002C000AE4605006946534620F00700854618B020B5FFF76BFFBDE820404FF000064FF075
:2002E00000074FF000084FF0000B21F00701AC46ACE8C009ACE8C009ACE8C009ACE8C009E7
:200300008D46704710B50446AFF300802046BDE81040FFF736BF000000487047A401002018
:2003200001491820ABBEFEE7260002007047000008480168084A1140B1F1005F03D007498E
:200340000120087070474168054A1060006880F308880847003000080000FE2F080000209E
:2003600008ED00E00EE0030A43EA002311F8010B5840C0F30313584080EA003080B2C3B20E
:2003800080EA43109142EED370470000034801F0D1FC034801F0CEFC01F018F9400D0300F4
:2003A000404B4C00074900224A6107490B6843F400730B600B6843F008030B6020F0FF0046
:2003C000026070473C000020043C02400E490868C2050E4803D5426942F0020242610A6874
:2003E000920503D5426942F0010242610A68120506D5426942F0040242614FF40060086016
:200400004FF4407008607047183C02403C00002070B5054600F0BEF90646114C09E0681CAB
:2004200007D025B100F0B6F9801BA84201D9032070BD2068C007F2D12068800701D50220A8
:2004400020602068C00505D42068000502D42068800503D5FFF7BAFF012070BD002070BD64
:20046000183C02401FB50020039000904FF4E4710648CDE9010103A9684600F03BF800288C
:2004800001D04FF0FF3004B010BD00000030000810B500F06FF8002010BD10B500F092F81C
:2004A000002010BD2DE9F0419046104A002486180D460F4F16E03119B94215D258F80420CF
:2004C0000023022000F060F818B14FF0FF30BDE8F08158F804003159884202D06FF0010068
:2004E000F5E7241DAC42E6D30020F0E70030000800F801082DE9F0471C4E05460F46307C05
:20050000012808D0012030744CF250384046FFF77FFF18B127E00220BDE8F0874FF0FF31D8
:200520003960C146DFF848806C6816E02046FFF739FF4846FFF76CFFD8F8002022F0080223
:20054000C8F80020D8F8002022F40072C8F8002008B13C6007E004F58074D5E9011201EB7D
:200560000221A142E2D800213174D5E73C000020043C02400348016841F0020101600020F2
:2005800070470000043C02402DE9F0410C4C15460F46207C012809D0012020744CF25038BA
:2005A0004046FFF735FF002618B107E00220BDE8F08166613D604046FFF72AFF2674F6E7FD
:2005C0003C0000200B480168890710D50068C00705D0084808490830016008490160054851
:2005E00007490C3001600749016000207047012070470000043C0240EFCDAB89050403022E
:20060000BFAE9D8C161514132DE9F84FDFF864B100234FF0010C4FF0030A4FF00F090BF19B
:20062000040EA0E00CFA03F6324072D04C68022C01D0122C0ED1DC0800EB8408D8F820401A
:200640005D07EF0E09FA07F5AC430D69BD402543C8F8205007685D0091F804800AFA05F46A
:2006600008F00308A74308FA05F848EA0708C0F800804F68012F05D0022F03D0112F01D044
:20068000122F11D18768D1F80C80A74308FA05F848EA0708C0F808804768B7430E79C6F3A0
:2006A00000169E403E434660C668A6438C68AC403443C4604C68E40054D52F4C256845F08F
:2006C00001052560246823F0030504F0010400942A4C2544AF689C07240F09FA04F6B74398
:2006E000274EB04201D1002615E0264EB04201D1012610E0244EB04201D102260BE0234E9D
:20070000B04201D1032606E0214EB04202D1042601E027E00526A6403E43AE60DBF800400D
:200720005D464E689443F60300D514432C60DEF8004075464E689443B60300D514432C6009
:200740000C4D08352C684E689443F60200D514432C60084D0C352C684E689443B60200D5EE
:2007600014432C605B1C0A6832FA03F47FF45AAFBDE8F88F000401402038024000000140C2
:20078000000002400004024000080240000C0240001002400148006870470000040000205B
:2007A00002480168491C0160704700000400002010B5032000F03EF8002000F005F800F0DA
:2007C00017F8002010BD000010B5044607484FF47A710068B0FBF1F000F0D4FD0022214653
:2007E000501E00F007F8002010BD00000000002070470000F0B40E4B1B680C46C3F302232B
:20080000C3F10705042D00D90425191D072901D2002300E0DB1E012606FA05F1491E2140CB
:2008200099409E40761E16403143F0BC00F0BEBE0CED00E0064900F0070208684FF6FF03B3
:20084000184040EA0220034A10430860704700000CED00E00000FA050248006800F4C050A7
:2008600070470000007000402DE9F84F06460078C00771D04848016841F080510160006824
:20088000464C00F080500090206840F480702060FFF780FF054604E0FFF77CFF401B64284E
:2008A0004DD82068C005F7D53B4D243D2868716800F0C04001F0C042824209D0C1F3014033
:2008C000032805D12868800302D50120BDE8F88F314C1034206810F4403049D001F44031A4
:2008E000814245D03078C00742D020684FF4000191FAA1F2B2FA82F29700294A4FF0010843
:20090000174420F44030C7F8808691FAA1F1B1FA81F102EB81010023C1F8803620608005F3
:2009200026D5FFF737FF074641F2883A4FF4007907E000BFFFF72EFFC11B514501D903205A
:20094000C4E799FAA9F0B0FA80F040F04001B8EB511F02D1296801E01CE0216899FAA9F22A
:20096000B2FA82F202F01F0208FA02F00142E1D07068C0F30141032906D1296800F0C0400B
:2009800021F0C041014329602068716801F4403108432060002099E72438024000700040F8
:2009A000000047422DE9F047DFF8BC8105460E46D8F8000000F00100B04214D2012E05D110
:2009C000D8F8001041F00401C8F80010D8F8001021F001013143C8F80010D8F8000000F03A
:2009E0000100B04271D12878604C800705D52068A96820F0F000084320602878C00771D009
:200A00005A4A5A4B69680120083A2C33022910D003292ED001292FD05FEA402797FAA7FCB8
:200A2000BCFA8CFC4CF0200C5FEA5C1C04D0126803E04FF40037F1E71A6897FAA7F3B3FA72
:200A400083F303F01F039840024262D0206820F0030008432060FFF79DFE6968074641F275
:200A60008830022910D003291CD00129814626D034E04FF00077D1E70227CFE7FFF78AFED5
:200A8000C11B494501D926E081462068C0F381000228F3D126E000BFFFF77CFEC11B4945FC
:200AA00001D918E081462068C0F381000328F3D118E000BFFFF76EFEC11B49450BD8206804
:200AC000C0F381000128F5D10CE022E0FFF762FEC11B494502D90320BDE8F087206810F0A3
:200AE0000C0FF3D1D8F80010404601F00101B14211D9012E03D1016841F004010160016875
:200B000021F0010131430160006800F00100B04201D00120E0E72878400705D52068E9684F
:200B200020F4E060084320602878000706D52068296920F4605040EAC100206000F052F891
:200B40002168F02292FAA2F201F0F001B2FA82F2D140074A515CC840064908600020FFF7F4
:200B600033FE0020B8E70000003C024008380240411F000800000020014800687047000095
:200B80000000002008480949006809684FF4E06292FAA2F201F4E061B2FA82F2D140044A60
:200BA000515CC840704700000000002008380240511F000808480949006809684FF460523F
:200BC00092FAA2F201F46051B2FA82F2D140044A515CC840704700000000002008380240C2
:200BE000511F00081F4A116801F00C00042813D0082813D00C2813D0101F006800F4604139
:200C00004FF4604090FAA0F0B0FA80F0C1404FF40040491C88407047134870471348704731
:200C20004FF4701393FAA3F301F47010B3FA83F3D8400F4B01F440011268185C4FF4400317
:200C400093FAA3F3B3FA83F3D940094B1B1F595CD20301D5054A00E0034A5043B0FBF1F0AC
:200C600070470000083802400024F400001BB7005D1F00082DE9F84F07460078FA4EFB4D1B
:200C8000C0074FF0010428D0F748083001684FF40038C1F38101022907D00168C1F381011F
:200CA00003291BD10068C00318D598FAA8F0B0FA80F040F02000400901D0306800E028684E
:200CC00098FAA8F1B1FA81F101F01F0104FA01F108425CD0786800287BD058E078680128C1
:200CE0000AD008B1052811D0306820F480303060306820F4802002E0306840F4803030602D
:200D0000786828B3FFF746FD81460BE0306840F480203060F0E700BFFFF73CFDA0EB0900D8
:200D2000642872D898FAA8F0B0FA80F040F02000400901D0306800E0286898FAA8F1B1FA51
:200D400081F101F01F0104FA01F10842E4D01EE0FFF720FD814605E0FFF71CFDA0EB0900C2
:200D60006428DED898FAA8F0B0FA80F040F02000400901D0306800E0286898FAA8F1B1FAA5
:200D800081F101F01F0104FA01F10842E4D13878DFF8DC8280074FF0000B4FF002095FD5AD
:200DA000B14808300168C1F38101012907D00168C1F3810103291CD10068C00319D499FAFF
:200DC000A9F0B0FA80F040F02000400902D0306801E085E0286899FAA9F1B1FA81F101F04C
:200DE0001F0104FA01F108422BD0F868012877D127E0F868A8B394FAA4F0B0FA80F048F88F
:200E00002040FFF7C7FC824606E033E1FFF7C2FCA0EB0A00022884D899FAA9F0B0FA80F0E2
:200E200040F02000400901D0306800E0286899FAA9F1B1FA81F101F01F0104FA01F10842AB
:200E4000E4D08948001D01684FF4F85393FAA3F33A69B3FA83F321F4F8519A401143016023
:200E600025E0FFE794FAA4F1B1FA81F148F821B0FFF790FC824605E0FFF78CFCA0EB0A00F4
:200E80000228C8D899FAA9F0B0FA80F040F02000400901D0306800E0286899FAA9F1B1FAF8
:200EA00081F101F01F0104FA01F10842E4D138784FF4007AC0066DD56B480830006810F0F8
:200EC0000C0F0ED0B9694FF48070E9B390FAA0F0B0FA80F048F82040FFF75CFC009061E035
:200EE0008BE09AFAAAF0B0FA80F040F02000400901D0306800E028689AFAAAF1B1FA81F181
:200F000001F01F0104FA01F1084202D0B869002873D05548396A001D006800F4604081420C
:200F20001CD9084600F064FB002866D14E48001D01683A6A21F460411143016001684FF0ED
:200F40007F4321F07F4100E058E093FAA3F3FA69B3FA83F39A401143016018E04248001D0F
:200F6000026822F460420A43026001684FF07F4393FAA3F3FA69B3FA83F321F07F419A40E2
:200F800011430160386A00F033FB0028CDD10020FFF71AFC57E000BFFFF7FCFB0099401A14
:200FA000022867D89AFAAAF0B0FA80F040F02000400901D0306800E028689AFAAAF1B1FA34
:200FC00081F101F01F0104FA01F10842E4D02648001D01683A6A21F4604111430160016834
:200FE0004FF07F4393FAA3F3FA69B3FA83F321F07F419A401143016025E083E190FAA0F064
:20100000B0FA80F048F820B0FFF7C4FB009005E0FFF7C0FB0099401A0228C2D89AFAAAF0E6
:20102000B0FA80F040F02000400901D0306800E028689AFAAAF1B1FA81F101F01F0104FAC9
:2010400001F10842E4D1387800075BD5786980B394FAA4F0B0FA80F008EB8000C0F8804677
:20106000FFF798FB00900DE0003802403438024000004742A3E000BFFFF78CFB0099401A07
:2010800002288ED899FAA9F0B0FA80F040F04000B4EB501F01D1306800E0286899FAA9F1F5
:2010A000B1FA81F101F01F0104FA01F21042E3D028E0FFE794FAA4F1B1FA81F108EB810169
:2010C000C1F880B6FFF766FB009005E0FFF762FB0099401A022872D899FAA9F0B0FA80F055
:2010E00040F04000B4EB501F01D1306800E0286899FAA9F1B1FA81F101F01F0104FA01F24C
:201100001042E3D1387840077ED59048016841F080510160006800F0805000908C480168E6
:2011200041F480710160FFF735FB814606E000BFFFF730FBA0EB0900642840D88448006809
:20114000C005F5D5B86801280AD008B1052811D0286820F480702860286820F4806002E094
:20116000286840F480702860B86848B3FFF712FB81460DE0286840F480602860F0E700BF9F
:20118000FFF708FBA0EB090141F28830814216D89AFAAAF0B0FA80F040F04000B4EB501F5F
:2011A00001D1306800E028689AFAAAF1B1FA81F101F01F0104FA01F21042E1D024E083E09D
:2011C000FFE7FFF7E7FA814608E000BFFFF7E2FAA0EB090141F28830814275D89AFAAAF054
:2011E000B0FA80F040F04000B4EB501F01D1306800E028689AFAAAF1B1FA81F101F01F0120
:2012000004FA01F21042E1D1786AD0B34F491C390968C1F38101032974D002284FF0807116
:201220004FF0007A58460BD091FAA1F1B1FA81F148F82100FFF7AEFAB046074656466BE019
:201240004FF0807191FAA1F1B1FA81F1C14648F82100FFF79FFAB3468046564606E000BF2D
:20126000FFF798FAA0EB0800022852D896FAA6F0B0FA80F040F02000400903D0DBF8000080
:2012800001E05FE0286896FAA6F1B1FA81F101F01F0104FA01F10842E2D1D7E90A1001433E
:2012A0002A483A6B1C38036823F47D031A4311430160400590FAA0F0B0FA80F049F8204095
:2012C000FFF768FA074606E023E000BFFFF762FAC01B02281DD896FAA6F0B0FA80F040F005
:2012E0002000400902D0DBF8000000E0286896FAA6F1B1FA81F101F01F0104FA01F10842E1
:20130000E4D01FE020E000BFFFF744FAC01B022802D90320BDE8F88F96FAA6F0B0FA80F0B8
:2013200040F02000400902D0D8F8000000E0286896FAA6F1B1FA81F101F01F0104FA01F1BD
:201340000842E1D10020E5E70120E3E724380240007000404FF0E0210428086903D020F0AC
:2013600004000861704740F00400FAE704494888421C4A80322801D900204880704700001C
:201380000800002010B5401EB0F1807F01D3012010BD4FF0E02460610F21601700F006F906
:2013A0000020A06107202061002010BD10B5FFF7DDFF10BD70B5040004D094F8390000252C
:2013C00010B106E0012070BD84F83850204600F020F8022084F839002068C16821F40051B8
:2013E000C160204600F034FA2068016921F4904101612068416921F02A0141612068C1684D
:2014000041F40051C160E563012084F83900002070BD70472DE9F047044690F839009946CC
:201420000D46012801D0122858D12DB322B394F83800012852D0012684F838600027E7638C
:2014400094F8390012281AD05FF0220084F83900A285E2854FF48058E08D4B46401EE08513
:20146000A0684FF0000240454FF02001204616D100F04AFBB0B904E00120BDE8F0873220E0
:20148000E4E7206900282068406803D0C1B225F8011B12E0C0F3080125F8021B0DE000F05C
:2014A00033FB08B10320E8E7206900282068406801D000F07F0005F8010BE08D0028CBD1F8
:2014C00094F83900322805D084F8396084F838700020D2E7122084F83900F7E70220CCE76C
:2014E0002DE9F047044690F8390099460D46012801D0222858D12DB322B394F83800012853
:2015000052D0012684F838600027E76394F8390022281AD05FF0120084F83900A284E28462
:201520004FF48058E08C4B46401EE084A0684FF0000240454FF08001204613D100F0E4FA2B
:2015400008BB04E00120BDE8F0873220E4E728882168C0F308004860206908B16D1C08E03B
:20156000AD1C06E000F0D0FA68B9216815F8010B4860E08C0028D5D14B46002240212046E3
:2015800000F0C2FA08B10320DDE794F83900322806D084F8396000BF84F838700020D2E739
:2015A000222084F83900F7E70220CCE70907090E002806DA00F00F0000F1E02080F8141DB9
:2015C000704700F1E02080F800147047BFF34F8F05480168054A01F4E06111430160BFF3EE
:2015E0004F8F00BFFDE700000CED00E00400FA05F8B507461A48002600681A4D10F0F00F3E
:2016000020D1174C1C342068C00002D5FFF724F90DE0206840F080502060206800F08050B7
:201620000090FFF719F9216821F080512160B0F5C05F07D1B7F5404F04D12868012640F093
:2016400004002860286820F0010030432860286800F00100B04201D00120F8BD0020F8BD73
:2016600008380240003C024010B5FFF799F8BDE81040FFF79BBE0000214810B5016896B0FD
:2016800041F080510160006800F0805014901D48016821F4C05141F4805101600124062075
:2016A0000090102009940490039402946846FFF7E1FA0F20CDE90D0400200F901090119097
:2016C00001210DA8FFF76EF92004CDE9124012A8FFF7CAF8FFF750FA4FF47A71B0FBF1F03E
:2016E000FFF750FE0420FFF735FE0320FFF7A2F800221146501EFFF77DF816B010BD0000C1
:2017000024380240007000400F48016841F4807101600D4908310A680C4B1A400A600268AE
:201720000B4B1A400260026822F480220260086820F47D0008600020091D086005494FF06F
:201740000060086070470000003802400CC0FF88FEFFFEEE08ED00E0F0B5264887B00168CC
:2017600041F480410160016821F48041016021480C30016841F480410160006800F48040F1
:2017800005901C480830016841F0010101600068022400F0010005904FF400700125CDE978
:2017A0000004CDE90254144F0726694604963846FEF72AFF6002CDE90004CDE902546946CD
:2017C00004963846FEF720FF0D480C4901604FF4E13141600C21416100218160C160016188
:2017E0008161C161FFF7E6FD002800D0FEE707B0F0BD000014380240000002400038014082
:201800005400002010B5044602E0641C00F070F920780028F9D110BD08B542F2107301229C
:2018200069460348FFF7F6FD9DF8000008BD00005400002010B5642300222021034800F00D
:2018400063F908B1002010BD012010BD540000202DE9F041044600680169E26821F44051D1
:20186000114301612169A068E26908436169114308432168CA6849F20C639A430243CA6070
:2018800020684169A26921F4407111434161E1696425B1F5004F954821684FF032083DD09B
:2018A00081427AD1FFF786F900EBC00101EB001061688900B0FBF1F6FFF77CF900EBC00102
:2018C00001EB001061688900B0FBF1F0B0FBF5F06FF01801484306EB800108EB0110B0FB7A
:2018E000F5F000F0F006FFF765F900EBC00101EB001061688900B0FBF1F0B0FBF5F006EBC2
:201900000016FFF757F900EBC00101EB001061688900B0FBF1F7FFF74DF9D0E081423DD121
:20192000FFF748F900EBC00101EB001061684900B0FBF1F0B0FBF5F00601FFF73BF900EB7E
:20194000C00101EB001061684900B0FBF1F7FFF731F900EBC00101EB001061684900B0FBA0
:20196000F1F0B0FBF5F06FF01801484307EB800108EBC100B0FBF5F000F0F80006EB40061D
:20198000FFF718F900EBC00101EB001061684900B0FBF1F7FFF70EF93CE055E0FFF7F2F8C5
:2019A00000EBC00101EB001061684900B0FBF1F0B0FBF5F00601FFF7E5F800EBC00101EBDF
:2019C000001061684900B0FBF1F7FFF7DBF800EBC00101EB001061684900B0FBF1F0B0FB98
:2019E000F5F06FF01801484307EB800108EBC100B0FBF5F000F0F80006EB4006FFF7C2F879
:201A000000EBC00101EB001061684900B0FBF1F7FFF7B8F800EBC00101EB00106168490019
:201A2000B0FBF1F0B0FBF5F06FF01801484307EB800108EBC100B0FBF5F000F00700216850
:201A400030448860BDE8F081FFF79CF800EBC00101EB001061688900B0FBF1F6FFF792F87E
:201A600000EBC00101EB001061688900B0FBF1F0B0FBF5F06FF01801484306EB800108EBE8
:201A80000110B0FBF5F000F0F006FFF77BF800EBC00101EB001061688900B0FBF1F0B0FB25
:201AA000F5F006EB0016FFF76DF800EBC00101EB001061688900B0FBF1F7FFF763F800EB16
:201AC000C00101EB001061688900B0FBF1F0B0FBF5F06FF01801484307EB800108EB011061
:201AE000B0FBF5F000F00F00A9E700000038014001B54FF6FF73012269460248FFF7F0FCE3
:201B000008BD0000540000202DE9F0471D4690460E460446FEF73EFE07465FEA08004FF05A
:201B200000094FF0010808D030E0681C05D095B1FEF730FEC01BA8420DD82068006836EAF0
:201B40000000F2D127E0681C20D025B1FEF722FEC01BA8421AD92068C16821F08001C16040
:201B60002068C16821F02001C1602068C16821F48071C1602068416921F00101416184F826
:201B8000398084F838900320BDE8F0872068006836EA0000D7D00020F6E700002DE9F84FF8
:201BA00001254FF00008FEF778FCDFF840B14320FFF79EFF5FF00004FFF73CFE88B1DFF8FE
:201BC000309100BF05F0010000EB001109EBC106341DFFF721FE7070042806D001287BD11B
:201BE00005E0641C0F2CE7DBE1E7062040E00227FFF712FEF0557F1C862FF9D3B178F27852
:201C000028460A44FF2A1FD1C21700EB126222F0FF02A81A814217D106F18402311D00204C
:201C2000FEF7A0FBB6F8841049BA88420CD1012D0CD08021CBF808105E46D6E90101884273
:201C400027D3401A706025E0152042E02949606888420CD120780090A06827495E46CBF81C
:201C60000000884203D8E16871600A0503D01520FFF73EFF30E00144FEF7F4FBD6E9000162
:201C80000144FEF7EFFBB4F810A060202034B060D2E7B060009814280ED13089376881B2D9
:201CA00022463846FEF7FEFB3089224681B23846FEF7F8FB00280FDBB06821462218404645
:201CC000FEF750FB8046B16830686D1C084430600620FFF70DFF75E7FEF7DAFBD04503D0B2
:201CE0004FF0FF30BDE8F88F0120FBE73000002094000020409E785F00F8010870B5FEF773
:201D000061FC0B4D286881070DD440F002042246002329460220FEF737FC224600232946A1
:201D20000220FEF731FCBDE87040FEF723BC000000F9010808B500210091814201DA491CC2
:201D4000FAE708BD43A392B00FCB0DF1200C00268CE80F003446142242A10CA8FEF738FA9A
:201D6000FEF726FDFFF788FCFFF7F6FC4248434F0078800702D5FEF7DBFA01E00120387083
:201D800008A8FFF73FFDE846FFF754FD002848D0641CFFF741FD0546312802D0612D08D01C
:201DA0003FE03748786037A0FFF72CFD00F080F837E0012C35D18DF8005000BFFFF73AFD44
:201DC00070B11D2C05D9202200216846FEF700FA0FE0FFF721FD08F80400641C0546E4B253
:201DE0000A2DEBD12CB108EB0400002100F8021C04E0202200216846FEF7EAF923A16846A6
:201E0000FEF718FAC8B123A16846FEF713FAE8B123A000BFFFF7F6FC202200216846FEF7C5
:201E2000D7F930460024761C9628ADD938780028AAD1FEF77DFA0026A6E70CA8FFF7E2FC68
:201E4000FFF75CFFFEF774FA0026EAE70B480830E0E700003C424F4F54204D4F44453E0D85
:201E60000A00000053746F7020426F6F74204D6F64650D0A0000000000F901080800002018
:201E8000003801404F4B0D0A0000000061742B72756E000061742B76657273696F6E0000BD
:201EA000415420636D64206572726F722E0D0A0010B54CF2503400BFFFF7BCFC0028FBD0C3
:201EC000FFF7AAFC75280AD0722817D062281AD0762821D0BDE8104011A0FFF793BC12A0CE
:201EE000FFF790FCFFF75AFE002801DAFEF74EFAFFF704FF0E48FFF71DFF02E00AA0FFF7EF
:201F000081FCFFF763FB08A0FFF77CFC2046FFF711FFFEF70DFACFE70648FFF773FCCBE757
:201F20004552524F520D0A004F4B0D0A00000000400D030010000020030406080C10182066
:201F4000300000000000000000010203040607080900000000010203040102030403040608
:201F6000080C101820300000881F0008000000203C00000030010008C41F00083C0000204A
:201F8000CC0700004C0100080048E80100000000000000000000000052554920426F6F7444
:201FA0006C6F616465722056657273696F6E3A332E302E320A00000000000000000000006F
:201FC000000000000000000000000000000000000000000000000000000000000000000001
:201FE0000000000000000000000000000000000000000000000000000000000000000000E1
:2020000000F08CF8D9F80C000028EADB07F0030002280FD1B8F1000F0CD15CB1A54209D21A
:2020200030214846641E00F079F8D9F80C000028F3DAD6E7CDE9004743465A463146484624
:2020400000F002F8CDE700002DE9F84F8246DDE90A4B0126984691460D460846374602E0C6
:20206000B0FBF9F07F1C4845FAD2B84500D947465FEACB7017D1B4B15FEA8B7002D5B8F1E0
:20208000000F02D0202000900BE03020FBE75046641E009900F042F8DAF80C00002838DB7E
:2020A0000CB1A742F3D3DAF80C00002831DB00BFB8F1010F02D9A8F1010803E0B5FBF6F034
:2020C000484502D306FB09F6F2E7DFF84C8000BFB5FBF6F000FB165518F80010504600F0C1
:2020E0001DF8DAF80C00002803DBB6FBF9F6002EEED15FEACB700CD0002C0AD0A74208D231
:2021000020215046641E00F009F8DAF80C000028F2DABDE8F88F0000CC29000810B504466B
:20212000D4E90130421C934205D323681954A260E068401CE060D4E90102824209D12168E1
:202140002069FFF709FAA168884203D04FF0FF30E06010BD0020A06010BD2DE9F047C46876
:202160001746894606464FF000083069A04201D9051B02E0B168201A0D1AB0686D1E001B11
:20218000A84200D80546BD4200D33D4670682A4620444946FDF7CAFFB0687F1B2C44A844D7
:2021A000A944A04200D10024F460002FDDD14046BDE8F0872DE9F04104468846D4E9020763
:2021C000C51BE168606816460844B54206D94146FDF7ACFFB819E060BDE8F0812A4641464C
:2021E000FDF7A4FF761B08EB050132466068FDF79DFFE660F0E700000FB4054B10B503A94D
:20220000044A029800F028F810BC5DF814FB0000312900081C0000200907090E002804DBCA
:2022200000F1E02080F80014704700F00F0000F1E02080F8141D704702E008C8121F08C16E
:20224000002AFAD170477047002001E001C1121F002AFBD1704700002DE9FF4F8DB00F4684
:202260000546002606E025280BD0DDE90F1290476D1C761C28780028F5D111B03046BDE89C
:20228000F08F0024A246A1460122EC4900E0044315F8013F203B02FA03F00842F7D1287804
:2022A0002A2810D06FF02F022878A0F13001092914D80AEB8A0102EB410144F0020400EB08
:2022C000010A6D1CF0E701CF5FEA000A03D544F40054CAF1000A44F002046D1C28782E288E
:2022E00017D115F8010F44F004042A280ED06FF02F022878A0F1300109290AD809EB8901E9
:2023000002EB410100EB01096D1CF2E757F8049B6D1C28786C280FD006DC4C2817D06828E0
:202320000DD06A2814D104E0742810D07A280FD10DE044F400140AE044F4801401E044F45F
:2023400040146978814202D104F580146D1C6D1C2A786E2A1FD00CDC632A31D004DC002A6A
:202360008BD0582A11D1A3E0642A68D0692A0CD165E0732A2ED004DC6F2A73D0702A04D1DA
:202380009BE0752A6FD0782A6ED01046DDE90F129047761C50E1C4F30250022806D00328F9
:2023A00009D0042801CF09D0066045E101CFF117C0E9006140E101CF06803DE106703BE1DA
:2023C00017F8040B8DF8000000208DF80100EB46012003E057F804BB4FF0FF3061074FF05C
:2023E000000102D40DE008F10101884649450FDA8045F8DB1BF808100029F4D108E008F147
:20240000010188468142FADB1BF808100029F6D1DDE90F23AAEB08008146214600F036F957
:20242000304400EB080604E0DDE90F121BF8010B9047B8F10108F7D221464846F7E00A21FC
:20244000C4F302534FF0000B0891022B04D001CFC117032B09D00AE0FF1D27F00707F7E8D3
:20246000020108E032E01FE020E000B2C117042B01D140B2C117031E71F1000307DA4FF065
:20248000000CD0EB0C006CEB01012D2302E0230504D52B238DF82430012303E0E30701D0F4
:2024A0002023F7E7984658E00A2110E010210EE010204FF0000B08900CE010214FF0000B32
:2024C00044F004044FF00809089103E008214FF0000B0891C4F30253022B04D001CF0021EA
:2024E000032B06D006E0FF1D27F00707F7E8020103E080B2042B00D1C0B24FF000082307D7
:202500002BD5702A07D0DDF820C08CF0100C5CEA0B0C05D00EE040238DF82430012308E095
:2025200050EA010306D030238DF824308DF8252002239846DDF820C08CF0080C5CEA0B0CEC
:202540000BD150EA010301D1630706D530238DF824304FF00108A9F10109582A04D038A202
:202560000B9208AA0A920BE03AA2F9E75B46089AFDF724FE0B9B9B5C0A9A521E0A921370A0
:2025800050EA0102F2D10A98ADEB000000F1200B600702D524F4803401E04FF00109D94593
:2025A00002DDA9EB0B0000E0002000EB0B0141440890AAEB010AE00306D4DDE90F232146CD
:2025C000504600F063F806444FF0000908E009A911F80900DDE90F12904709F10109761C88
:2025E000C145F4DBE0030CD5DDE90F232146504600F04CF8064404E0DDE90F1230209047DD
:20260000761C0899481E08900029F5DC08E00A980A990078491C0A91DDE90F129047761C9A
:20262000BBF10001ABF1010BF1DC21465046DDE90F2300F019F806446D1C1BE6092801007C
:20264000303132333435363738396162636465660000000030313233343536373839414288
:2026600043444546000000002DE9F041044600251E461746880404D405E039462020B047D2
:202680006D1C641EF9D52846BDE8F0812DE9F041044600251E469046C80301D5302700E015
:2026A0002027880404D505E041463846B0476D1C641EF9D52846BDE8F081000070B5FDF717
:2026C00051FF134C4FF05A352A4621460220FDF72BFF2068A84204D02A4621460220FDF733
:2026E00023FFFDF717FF0B4800680B490840B0F1005F0BD10648001D0068B0F1013F05D0F2
:20270000FEF738FEBDE87040FEF7F8BD70BD0000000F0808003000080000FE2F2DE9F04395
:2027200093B040216846FDF71AFD0024454F40F6FF79A0466E4638680168C943090702D441
:202740000168406811904B46012210A93D48FEF71BFD0028EFD19DF840003055641CA4B2B0
:20276000402C15D2052CE6D937A035190068119036A0022200681290A81E12A9FDF708FD6A
:202780000028D8D1032211A96846FDF701FD08B10024D0E705F8028C2DA16846FDF7EAFC74
:2027A000D0B12EA16846FDF7E5FCD0B12EA16846FDF7E0FC00282ED02DA16846FDF7DAFC0C
:2027C00000282FD02DA000BFFFF7A8F8002440216846FDF7C4FCAEE72DA0FFF79FF81BA01F
:2027E000F2E733A0FFF79AF8384901200870FDF7B9FE374D4FF00134224629460220FDF7FB
:2028000093FE224629460220FDF78EFEFDF782FE13B0BDE8F0832FA0FFF780F8FFF74EFFDF
:2028200031A0D1E73CA0FFF779F8BFF34F8F3E4801683E4A01F4E06111430160BFF34F8F4A
:2028400000BFFDE72009002061742B000D0A000061742B76657273696F6E000061742B75FA
:20286000706461746500000061742B72756E000061742B7265736574000000004154206EAF
:202880006F7420737570706F72742E0D0A00000052554920426F6F746C6F61646572205642
:2028A000657273696F6E3A332E302E35000000005374617274206669726D7761726520753A
:2028C0007067726164652E2E2E0D0A0009000020040F08084A756D7020746F206170702E6A
:2028E0002E2E0D0A000000004A756D70206661696C65642E204E6F206C6567616C20617023
:20290000706C69636174696F6E2064657465637465642E0D0A00000044657669636520726B
:20292000657365742E0D0A000CED00E00400FA0513B54FF6FF73012269460248FEF780FCB9
:2029400000981CBD2009002086B0FDF7A7FFFFF751F8FEF7E1FCFEF7EDFC14216846FDF727
:20296000FEFB12480068B0F15A3F10D11048006810490840B0F1005F09D10C48001D00686D
:20298000B0F1013F03D0FEF7F5FCFEF7B7FC0AA0FFF732FC0C4C207820B10128FBD1FEF77C
:2029A000FDFEF8E7FFF7BAFEF5E70000000F0808003000080000FE2F3C424F4F54204D4F03
:2029C00044453E0D0A00000009000020303132333435363738394142434445460304060839
:2029E0000C1018203000000000000000000102030406070809000000000102030400000021
:202A0000202A0008000000202000000038220008402A000820000020580D00004822000839
:202A200000000000000000000000000010000000010000000000000068FF1F0000000000FF
:202A4000000000000000000000000000000000000000000000000000000000000000000076
:202A6000000000000000000000000000000000000000000000000000000000000000000056
:202A8000000000000000000000000000000000000000000000000000000000000000000036
:202AA000000000000000000000000000000000000000000000000000000000000000000016
:202AC0000000000000000000000000000000000000000000000000000000000000000000F6
:202AE0000000000000000000000000000000000000000000000000000000000000000000D6
:202B000030B589B02F4BD3F86034D3F8CC20029293F905408DF8074093F904408DF806403B
:202B200000240094002946D00C460546D3F82812039100218DF8101093F8CA108DF8111097
:202B40000592B3F8D020ADF81820B3F8D220ADF81A2093F9D5208DF81C2093F9D4208DF8A3
:202B60001D2093F800218DF81E201B788DF81F3002AB0DF106020DF1070103A801F01CF8D9
:202B80009DF90700FDF7CAFB6070684602F08AFBA0B9009B0F2B0AD86278934207D8D31A5F
:202BA00023700098284482420AD3002004E000232370082000E0032009B030BD1420FBE73C
:202BC0000820F9E778030020002800F0618130B587B004460378342B00F25781DFE813F084
:202BE00035003E0046004E00550055015501550155015501550155015501550155015501C7
:202C0000550155015501550155015501550155015501550155015C0064006C007C00550104
:202C20008F007400A300AE00CD00B900E100E900F100F90001010901110119012901210182
:202C40003101390141014E014901924BD3F8603493F8C8300371002007B030BD8D4BD3F893
:202C6000603493F82C3203710020F5E7894BD3F8603493F8CA3003710020EDE7854BD3F8AC
:202C800060341B6C43600020E6E7824BD3F860345B6C43600020DFE77E4BD3F8603493F85A
:202CA000C93003710020D7E77A4BD3F8603493F8153103710020CFE7764BD3F8603493F8DF
:202CC000163103710020C7E7724BD3F8603493F8F53003710020BFE735238DF814306D4B8C
:202CE000D3F8603403AD05AA1978284603F0F4FD043495E8030084E803000020ACE71C231A
:202D00008DF81430634BD3F860346D4605AA1978284603F0E1FD03AB95E8030083E803000F
:202D20006060002098E75B4BD3F860340434F83393E8030084E8030000208DE7554BD3F8E0
:202D400060340434283393E8030084E80300002082E71A238DF814304E4BD3F860346D4625
:202D600005AA1978284603F0B7FD03AB95E8030083E80300606000206EE719238DF8143028
:202D8000444BD3F860346D4605AA1978284603F0A3FD03AB95E8030083E8030060600020D5
:202DA0005AE73C4BD3F8603493F8F4300371002052E7384BD3F86034D3F8E03043600020F0
:202DC0004AE7344BD3F86034D3F8E4304360002042E7304BD3F86034D3F8E8304360002099
:202DE0003AE72C4BD3F86034D3F8EC304360002032E7284BD3F86034D3F8F0304360002099
:202E00002AE7244BD3F8603493F905300371002022E7204BD3F8603493F9D5300371002086
:202E20001AE71C4BD3F8603493F904300371002012E7184BD3F8603493F9D4300371002098
:202E40000AE7144BD3F86034D3F8D8304360002002E7104BD3F8603493F8DC30037100205F
:202E6000FAE60C4BD3F86034D3F8083143600020F2E6FEF78BFE60600020EDE6054BD3F8D1
:202E800060349B6B43600020E6E601F0D1FCE3E6032070477803002030B587B0002800F0D9
:202EA00054830446AF4BD3F8583313F0020F40F04E830378352B00F20083DFE813F036003C
:202EC00041004C0054005B0062006E007A00860092009E00AA00B600C200CE00DA00E60006
:202EE000F200FE000A01160122012E013A014601550161016D017C0184019D018C01FE0299
:202F00009501A601E4011302020224023102390241024902510259027002A3028C02BB0244
:202F2000C602D102D902E002E7020079FEF750F90446FDF7D0F9FDF7C9F9204607B030BDD2
:202F40000379022B00F0BD82864AD2F8602482F82C320024EDE7834BD3F86034027983F888
:202F6000CA200024E5E77F4BD3F8603442681A640024DEE77B4BD3F8603442685A6400248C
:202F8000D7E74168002900F09E82002002F034FF002840F0DE820024CBE74168002900F0FC
:202FA0009482012002F028FF002840F0D4820024BFE74168002900F08A82022002F01CFF4C
:202FC000002840F0CA820024B3E74168002900F08082032002F010FF002840F0C0820024E9
:202FE000A7E74168002900F07682042002F004FF002840F0B68200249BE74168002900F078
:203000000080002069200108B12001089D310008B1200108B1200108B12001080000000040
:20302000000000000000000000000000B1200108B120010800000000B12001081565000880
:20304000B1200108B1200108B1200108B1200108B1200108B1200108096A0008196A00084E
:20306000296A0008396A0008496A0008B1200108B1200108B1200108B1200108B12001080D
:20308000B1200108B1200108B1200108B1200108B1200108B1200108B1200108596A00086F
:2030A00000000000B1200108FD670008B1200108B1200108B1200108B1200108B120010888
:2030C000B1200108B1200108B1200108B1200108B120010891570008B12001089D570008E8
:2030E000856A0008A5610008B12001088D5A0008B120010800000000000000000000000028
:203100000000000000000000000000000000000000000000000000000000000000000000AF
:203120000000000000000000000000000000000000000000000000005FF808F1000000003F
:2031400010B5054C237833B9044B13B10448AFF300800123237010BD4C040020000000005D
:2031600074300108084B10B51BB108490848AFF300800848036803B910BD074B002BFBD06F
:20318000BDE81040184700BF0000000050040020743001084C040020000000007046694626
:2031A0000EF0CEFBFFF7FEFF10F8012B11F8013B012A28BF9A42F7D0D01A7047034613F832
:2031C000012B002AFBD1181A0138704781F0004102E000BF83F0004330B54FEA41044FEA06
:2031E000430594EA050F08BF90EA020F1FBF54EA000C55EA020C7FEA645C7FEA655C00F0EB
:20320000E2804FEA5454D4EB5555B8BF6D420CDD2C4480EA020281EA030382EA000083EACB
:20322000010180EA020281EA0303362D88BF30BD11F0004F4FEA01314FF4801C4CEA113104
:2032400002D0404261EB410113F0004F4FEA03334CEA133302D0524263EB430394EA050FC3
:2032600000F0A780A4F10104D5F1200E0DDB02FA0EFC22FA05F2801841F1000103FA0EF2E0
:20328000801843FA05F359410EE0A5F120050EF1200E012A03FA0EFC28BF4CF0020C43FA51
:2032A00005F3C01851EBE37101F0004507D54FF0000EDCF1000C7EEB00006EEB0101B1F50C
:2032C000801F1BD3B1F5001F0CD349085FEA30004FEA3C0C04F101044FEA445212F5800F13
:2032E00080F09A80BCF1004F08BF5FEA500C50F1000041EB045141EA050130BD5FEA4C0C5B
:20330000404141EB010111F4801FA4F10104E9D191F0000F04BF01460020B1FA81F308BF66
:203320002033A3F10B03B3F120020CDA0C3208DD02F1140CC2F10C0201FA0CF021FA02F1F0
:203340000CE002F11402D8BFC2F1200C01FA02F120FA0CFCDCBF41EA0C019040E41AA2BFF0
:2033600001EB0451294330BD6FEA04041F3C1CDA0C340EDC04F11404C4F1200220FA04F0E5
:2033800001FA02F340EA030021FA04F345EA030130BDC4F10C04C4F1200220FA02F001FA3B
:2033A00004F340EA0300294630BD21FA04F0294630BD94F0000F83F4801306BF81F48011BA
:2033C0000134013D4EE77FEA645C18BF7FEA655C29D094EA050F08BF90EA020F05D054EA2B
:2033E000000C04BF1946104630BD91EA030F1EBF0021002030BD5FEA545C05D1400049412B
:2034000028BF41F0004130BD14F580043CBF01F5801130BD01F0004545F0FE4141F470011A
:203420004FF0000030BD7FEA645C1ABF194610467FEA655C1CBF0B46024650EA013406BFD7
:2034400052EA033591EA030F41F4002130BD00BF90F0000F04BF0021704730B54FF4806433
:2034600004F132044FF000054FF0000150E700BF90F0000F04BF0021704730B54FF4806471
:2034800004F1320410F0004548BF40424FF000013EE700BF42004FEAE2014FEA31014FEA0D
:2034A00002701FBF12F07F4393F07F4F81F06051704792F0000F14BF93F07F4F704730B57D
:2034C0004FF4607401F0004521F0004120E700BF50EA010208BF704730B54FF000050AE0B9
:2034E00050EA010208BF704730B511F0004502D5404261EB41014FF4806404F132045FEA64
:20350000915C3FF4DCAE4FF003025FEADC0C18BF03325FEADC0C18BF033202EBDC02C2F1C5
:20352000200300FA03FC20FA02F001FA03FE40EA0E0021FA02F11444C1E600BF70B54FF0FF
:20354000FF0C4CF4E06C1CEA11541DBF1CEA135594EA0C0F95EA0C0F00F0DEF82C4481EA4B
:20356000030621EA4C5123EA4C5350EA013518BF52EA033541F4801143F4801338D0A0FB00
:2035800002CE4FF00005E1FB02E506F00042E0FB03E54FF00006E1FB03569CF0000F18BF6D
:2035A0004EF0010EA4F1FF04B6F5007F64F5407404D25FEA4E0E6D4146EB060642EAC62176
:2035C00041EA55514FEAC52040EA5E504FEACE2EB4F1FD0C88BFBCF5E06F1ED8BEF1004F06
:2035E00008BF5FEA500E50F1000041EB045170BD06F0004646EA010140EA020081EA030165
:20360000B4EB5C04C2BFD4EB0C0541EA045170BD41F480114FF0000E013C00F3AB8014F13A
:20362000360FDEBF002001F0004170BDC4F10004203C35DA0C341BDC04F11404C4F12005E7
:2036400000FA05F320FA04F001FA05F240EA020001F0004221F0004110EBD37021FA04F674
:2036600042EB06015EEA430E08BF20EAD37070BDC4F10C04C4F1200500FA04F320FA05F09D
:2036800001FA04F240EA020001F0004110EBD37041F100015EEA430E08BF20EAD37070BD90
:2036A000C4F1200500FA05F24EEA020E20FA04F301FA05F243EA020321FA04F001F0004181
:2036C00021FA04F220EA020000EBD3705EEA430E08BF20EAD37070BD94F0000F0FD101F061
:2036E0000046400041EB010111F4801F08BF013CF7D041EA060195F0000F18BF704703F060
:203700000046520043EB030313F4801F08BF013DF7D043EA0603704794EA0C0F0CEA135587
:2037200018BF95EA0C0F0CD050EA410618BF52EA4306D1D181EA030101F000414FF00000DD
:2037400070BD50EA410606BF1046194652EA430619D094EA0C0F02D150EA013613D195EA93
:203760000C0F05D152EA03361CBF104619460AD181EA030101F0004141F0FE4141F47001C1
:203780004FF0000070BD41F0FE4141F4780170BD70B54FF0FF0C4CF4E06C1CEA11541DBF30
:2037A0001CEA135594EA0C0F95EA0C0F00F0A7F8A4EB050481EA030E52EA03354FEA0131E6
:2037C00000F088804FEA03334FF0805545EA131343EA12634FEA022245EA111545EA106521
:2037E0004FEA00260EF000419D4208BF964244F1FD0404F5407402D25B084FEA3202B61A56
:2038000065EB03055B084FEA32024FF480104FF4002CB6EB020E75EB030E22BFB61A7546B0
:2038200040EA0C005B084FEA3202B6EB020E75EB030E22BFB61A754640EA5C005B084FEAD2
:203840003202B6EB020E75EB030E22BFB61A754640EA9C005B084FEA3202B6EB020E75EBFF
:20386000030E22BFB61A754640EADC0055EA060E18D04FEA051545EA16754FEA06164FEAEF
:20388000C30343EA52734FEAC2025FEA1C1CC0D111F4801F0BD141EA00014FF000004FF037
:2038A000004CB6E711F4801F04BF01430020B4F1FD0C88BFBCF5E06F3FF6AFAEB5EB030C1E
:2038C00004BFB6EB020C5FEA500C50F1000041EB045170BD0EF0004E4EEA113114EB5C04BD
:2038E000C2BFD4EB0C0541EA045170BD41F480114FF0000E013C90E645EA060E8DE60CEA58
:20390000135594EA0C0F08BF95EA0C0F3FF43BAF94EA0C0F0AD150EA01347FF434AF95EA70
:203920000C0F7FF425AF104619462CE795EA0C0F06D152EA03353FF4FDAE1046194622E7DC
:2039400050EA410618BF52EA43067FF4C5AE50EA41047FF40DAF52EA43057FF4EBAE12E76D
:203960004FF0FF3C06E000BF4FF0010C02E000BF4FF0010C4DF804CD4FEA410C7FEA6C5C22
:203980004FEA430C18BF7FEA6C5C1BD001B050EA410C0CBF52EA430C91EA030F02BF90EA56
:2039A000020F0020704710F1000F91EA030F58BF994208BF90422CBFD8176FEAE37040F041
:2039C000010070474FEA410C7FEA6C5C02D150EA013C07D14FEA430C7FEA6C5CD6D152EABA
:2039E000033CD3D05DF8040B704700BF8446104662468C461946634600E000BF01B5FFF71E
:203A0000B7FF002848BF10F1000F01BD4DF808EDFFF7F4FF0CBF012000205DF808FB00BFAD
:203A20004DF808EDFFF7EAFF34BF012000205DF808FB00BF4DF808EDFFF7E0FF94BF01209F
:203A400000205DF808FB00BF4DF808EDFFF7CEFF94BF012000205DF808FB00BF4DF808ED4D
:203A6000FFF7C4FF34BF012000205DF808FB00BF4FEA410212F5001215D211D56FF4787392
:203A8000B3EB625212D94FEAC12343F0004343EA505311F0004F23FA02F018BF4042704717
:203AA0004FF00000704750EA013005D111F0004008BF6FF0004070474FF00000704700BFBC
:203AC0004A0011D212F5001211D20DD56FF47873B3EB62520ED44FEAC12343F0004343EA99
:203AE000505323FA02F070474FF00000704750EA013002D14FF0FF3070474FF0000070470E
:203B000080F0004002E000BF81F0004142001FBF5FEA410392EA030F7FEA226C7FEA236C78
:203B20006AD04FEA1262D2EB1363C1BFD218414048404140B8BF5B42192B88BF704710F021
:203B4000004F40F4000020F07F4018BF404211F0004F41F4000121F07F4118BF494292EA85
:203B6000030F3FD0A2F1010241FA03FC10EB0C00C3F1200301FA03F100F0004302D54942F2
:203B800060EB4000B0F5000F13D3B0F1807F06D340084FEA310102F10102FE2A51D2B1F1F1
:203BA000004F40EBC25008BF20F0010040EA03007047490040EB000010F4000FA2F10102A0
:203BC000EDD1B0FA80FCACF1080CB2EB0C0200FA0CF0AABF00EBC25052421843BCBFD040CF
:203BE0001843704792F0000F81F4000106BF80F400000132013BB5E74FEA41037FEA226CF4
:203C000018BF7FEA236C21D092EA030F04D092F0000F08BF0846704790EA010F1CBF0020A0
:203C2000704712F07F4F04D1400028BF40F00040704712F100723CBF00F50000704700F0CE
:203C4000004343F0FE4040F4000070477FEA226216BF08467FEA23630146420206BF5FEA2D
:203C6000412390EA010F40F4800070474FF0000304E000BF10F0004348BF40425FEA000CE5
:203C800008BF704743F0964301464FF000001CE050EA010208BF70474FF000030AE000BF72
:203CA00050EA010208BF704711F0004302D5404261EB41015FEA010C02BF844601460020D6
:203CC00043F0B64308BFA3F18053A3F50003BCFA8CF2083AA3EBC25310DB01FA02FC63444B
:203CE00000FA02FCC2F12002BCF1004F20FA02F243EB020008BF20F00100704702F1200219
:203D000001FA02FCC2F1200250EA4C0021FA02F243EB020008BF20EADC7070474FF0FF0CF2
:203D20001CEAD0521EBF1CEAD15392EA0C0F93EA0C0F6FD01A4480EA010C400218BF5FEAAF
:203D400041211ED04FF0006343EA501043EA5111A0FB01310CF00040B1F5000F3EBF490051
:203D600041EAD3715B0040EA010062F17F02FD2A1DD8B3F1004F40EBC25008BF20F0010056
:203D8000704790F0000F0CF0004C08BF49024CEA502040EA51207F3AC2BFD2F1FF0340EA19
:203DA000C250704740F400004FF00003013A5DDC12F1190FDCBF00F000407047C2F10002EE
:203DC000410021FA02F1C2F1200200FA02FC5FEA310040F1000053EA4C0308BF20EADC7073
:203DE000704792F0000F00F0004C02BF400010F4000F013AF9D040EA0C0093F0000F01F06E
:203E0000004C02BF490011F4000F013BF9D041EA0C018FE70CEAD15392EA0C0F18BF93EA80
:203E20000C0F0AD030F0004C18BF31F0004CD8D180EA010000F00040704790F0000F17BF7D
:203E400090F0004F084691F0000F91F0004F14D092EA0C0F01D142020FD193EA0C0F03D108
:203E60004B0218BF084608D180EA010000F0004040F0FE4040F40000704740F0FE4040F461
:203E8000400070474FF0FF0C1CEAD0521EBF1CEAD15392EA0C0F93EA0C0F69D0A2EB0302B8
:203EA00080EA010C49024FEA402037D04FF0805343EA111143EA10130CF000408B4238BFEF
:203EC0005B0042F17D024FF4000C8B4224BF5B1A40EA0C00B3EB510F24BFA3EB510340EA3E
:203EE0005C00B3EB910F24BFA3EB910340EA9C00B3EBD10F24BFA3EBD10340EADC001B0178
:203F000018BF5FEA1C1CE0D1FD2A3FF650AF8B4240EBC25008BF20F0010070470CF0004C5C
:203F20004CEA50207F32C2BFD2F1FF0340EAC250704740F400004FF00003013A37E792F0A0
:203F4000000F00F0004C02BF400010F4000F013AF9D040EA0C0093F0000F01F0004C02BF38
:203F6000490011F4000F013BF9D041EA0C0195E70CEAD15392EA0C0F08D142027FF47DAFBE
:203F800093EA0C0F7FF470AF084676E793EA0C0F04D14B023FF44CAF08466EE730F0004C55
:203FA00018BF31F0004CCAD130F000427FF45CAF31F000437FF43CAF5FE700BF42000ED259
:203FC000B2F1FE4F0BD34FF09E03B3EB126209D44FEA002343F0004323FA02F070474FF06D
:203FE0000000704712F1610F01D1420202D14FF0FF3070474FF00000704700BF704700001D
:20400000014801F0E7BB00BFF030010810B579B9032810D8DFE800F002040A08134800E0C8
:20402000134801F0D7FB06E01248FAE71248F8E7124801F0CFFB124C002021460CF0D0FE44
:2040400094F84C00012802D0022809D010BDB4F84A100CF0F1FCBDE8104005200CF02FB8D1
:20406000B4F84A10BDE810400CF0E6BC08310108383101086631010896310108C431010885
:20408000C014002030B5054690F90C30B0F90A200178007A85B0002400901148ADF80C403E
:2040A0008DF80E4001F096FB6B6823B90D4801F091FB05B030BD2B7A002BF7D00A4801F0AE
:2040C00089FB2B7A9C42F1DA6B6808491A5D03A80EF072F803A9064801F07CFB0134F0E7F2
:2040E000D03101080A390108D8460108E4310108DA4E010837B500240546037990F908206C
:20410000B0F906100D48ADF804408DF8064001F061FB2B799C420BDA2B6809491A5D01A81E
:204120000EF04AF801A9074801F054FB0134F0E7054801F04FFB03B030BD00BFE9310108F0
:20414000FB310108DA4E01080A39010870B50646224D234C88B1234B002623481E702E70FA
:2041600001F038FB214630460CF03AFE94F84C3093B31E4B01221A7070BD2978052917D8BB
:204180000131C9B21A48297001F024FB214630460CF026FE94F8473003B1013B84F8473084
:2041A00094F847000CF0E6FBBDE870400CF094BC6321104801F00EFB214630460CF010FEF1
:2041C00094F84C00012801D0022803D1B4F84A100CF032FC00232B7070BD00BF68040020A9
:2041E000C014002069040020003201086A0400201A320108C431010870470000034B0122FA
:204200001A70034B00221A70704700BF6A04002069040020094808B50121132212234FF0B0
:20422000000E80E80E400CF005F910B1044801F0D1FABDE8084032200BF041BFAC140020DD
:2042400035320108012870B50D46164614D10B4C002021460CF0C4FD94F84D3033B1F2B2E0
:204260002946BDE8704008200CF0C0BC56210448BDE8704001F0AEBA70BD00BFC014002089
:20428000C431010808B50CF0EDFFFFF7C3FF26480CF010FC25480CF083FA25480CF010FCF2
:2042A00024480CF013FC244C24480CF07FFA244924480CF077F8214600200CF091FD94F855
:2042C00044301BB1012B25D11F4821E094F84C3023B1B4F84A101D4801F07CFA1C4801F011
:2042E00079FA94F84630144D0BB91A4802E0012B10D1194801F06EFA95F84530012B06D015
:2043000003D3022B06D1154802E0154800E0154801F060FA144801F05DFA074900200CF08F
:204320005FFD0CF0A1FFF8E785400008F54000084D4100080D400008C01400200140000874
:20434000F9410008FD3F00081433010887320108A0320108CD32010802330108F632010873
:20436000DE320108EA3201080A39010810B5434801F030FA424801F02DFA424801F02AFA07
:20438000414801F027FA414801F024FA404801F021FA404801F01EFA3F4801F01BFA3F48B1
:2043A00001F018FA3E4801F015FA3E4801F012FA3D4801F00FFA3D4801F00CFA3C4801F081
:2043C00009FA3C4C3C4801F005FA3C4801F002FA204601F0FFF93A4801F0FCF9394801F044
:2043E000F9F9394801F0F6F9384801F0F3F9384801F0F0F9374801F0EDF9374801F0EAF90A
:20440000364801F0E7F9364801F0E4F9354801F0E1F9354801F0DEF9344801F0DBF93448B7
:2044200001F0D8F9334801F0D5F9334801F0D2F9324801F0CFF9324801F0CCF9314801F07C
:20444000C9F9314801F0C6F9304801F0C3F9304801F0C0F9204601F0BDF92E4801F0BAF903
:204460002D4801F0B7F92D4801F0B4F92C4801F0B1F9BDE810402B4801F0ACB93E330108CC
:20448000A9330108BF330108CE330108DA330108E5330108063401082734010845340108D2
:2044A0006534010887340108AE340108C5340108E73401080A390108073501082635010890
:2044C0004E350108653501087135010888350108AA350108C9350108ED35010811360108CE
:2044E000353601085A3601087F360108A4360108C7360108EA3601080D3701082C37010826
:204500004D370108693701088B370108A8370108D1370108EF370108063801082E380108BC
:20452000463801087A380108F0B5074697B000244E680D46204601A9ADF800408DF8024017
:204540000CF04EFC022F40F0B4803346214613F8012B32B96E685B493046FEF725FE78B14D
:204560002EE00D2AF6D03A2AF1D10134012C03F8011C01D1AB60EAE7022C08BFEB60E6E7D5
:20458000022C40F09680E9684F480DF056FEE868FEF714FE0646A8680DF08BFDB2B24A493F
:2045A000C0B20BF025FE18B1072807D1082183E0A8680DF07EFD014644487EE021467BE094
:2045C0009DF84830012B37D141493046FEF7ECFD00286ED1012C6CD1A9683B480DF02DFE2F
:2045E000A868FEF7EBFD10F00105044661D1364EA54206DA705D0DF087FD002859D001352C
:20460000F6E7022394FBF3F42F4E0025A5420BDA36F81530102200216846ADF800300DF06E
:204620005DFF70550135F1E7A1B227480CF0A0F8284801F0CFF842E0002B3CD1264930468E
:20464000FEF7B2FDA8BB022C33D1E9681E480DF0F4FDE868FEF7B2FD10F00106044628D13E
:20466000194FA64205DAB85D0DF04EFD08B30136F7E7022394FBF3F4134F0026A6420BDAEE
:2046800037F81630102200216846ADF800300DF025FFB8550136F1E7A8680DF00AFD0A492B
:2046A000E2B2C0B20CF0A2FA0128014601D003D205E0022100E00121084801F08BF817B0B1
:2046C000F0BD00BFAE3801087C010020B3380108CF380108D7380108F2380108C431010895
:2046E00010B50C4696B001A900200CF079FB6368DBB99DF84A4054B90F4801F06BF80F4B93
:2047000001221A700CF0E8F9014678B911E0012C0BD10CF0E1F9014618B1012806D1022194
:2047200004E02046FFF712FD03E00121044801F051F816B010BD00BFF73801086904002088
:20474000C43101087FB501A80BF004FF01A9034801F040F807B05DF804FB00BF0D39010849
:20476000012803DC0221034801F034B8486800F0FFBD00BFC4310108022803D00221034862
:2047800001F028B8486800F03DBE00BFC43101082DE9F047044694B05022002168462F4E57
:2047A0000DF002FD03222E49204634600DF04DFD054628B101212B4801F00CF8012548E024
:2047C000E378002BF6D0E01C30602C462E46ADF104010378ABB10134152CEBD0024641F8EF
:2047E000040F104612F8013B2C2B29D0002BF0D00D2B08D03A2B06D03D2BF2D1012CF0D16B
:204800001EE0002CD6D0DDF80090DFF85CA000265AF836104846FEF7C7FCF700804638B9DE
:20482000114B69461F447B6820469847454610E00136062EECD101210A4800F0CBFF08E029
:20484000034603F8016B1846027801333A2AFAD0BFE7284614B0BDE8F08700BF1415002072
:204860002D390108C43101080000002010B523490446FEF799FC00283FD021492046FEF7AA
:2048800093FC58B31F492046FEF78EFC40B31E492046FEF789FC28B31C492046FEF784FCDC
:2048A00010B31B492046FEF77FFCF8B119492046FEF77AFCE0B118492046FEF775FCC8B1E8
:2048C00016492046FEF770FCB0B115492046FEF76BFC00280CBF0920642010BD012010BDD6
:2048E000022010BD032010BD042010BD052010BD062010BD072010BD082010BD31390108A7
:20490000373901083D39010843390108493901084F390108553901085B3901086139010827
:2049200067390108002370B51E4604390478BCB101330B2B0CD041F8040F044610F8015BBC
:204940002C2D0FD05DB1262D04D03A2DF5D109E0002070BD002104F8011B146000E0156085
:20496000184670BD04F8016B2046057801342C2DFAD0DBE72DE9F341022898464FF00003B3
:204980000D461746ADF804308DF8063005D00221144800F01FFF012021E00846FEF70EFC02
:2049A000B0EB470FF3D12E462C18A64206D016F8010B0DF0A9FB0028F7D1E8E70024BC4230
:2049C0000CDA35F814301022002101A8ADF804300DF084FD08F804000134F0E7002002B04B
:2049E000BDE8F081C43101082DE9F0430C461546D2F80080DFF8F89289B0002659F836100C
:204A00004046F700FEF7D0FB40B101361A2EF5D10121B64800F0DEFE012011E2B44B1F44C1
:204A20003B79033B162BF3D801A252F823F000BFDD4A0008114A0008114A0008114A000861
:204A4000114A0008114A00088D4A0008D74A0008EB4A0008114B0008394B0008614B0008A7
:204A6000894B0008B14B0008D94B0008094C0008634C0008894C0008C34C00086B4D000862
:204A8000BB4D00088D4D0008634D0008994900200CF0A6F96E6898493046FEF785FB0446E3
:204AA00020B99549954800F095FE12E03046FFF7DDFE642801D15921ABE76868FFF7D6FEA2
:204AC000C0B20BF04CFD8E4B04461870002840F009818C48A9E10CF0E9F803E00021012033
:204AE0000CF07EF9864B187099E06B4608226968E0B2FFF73FFF00288ED168460BF03CFD96
:204B00007F4B04461870002840F02D817E488CE16B4608226968E0B2FFF72CFF00287FF4C6
:204B20007BAF68460BF03EFD754B04461870002840F01981754878E16B4610226968E0B287
:204B4000FFF718FF00287FF467AF68460BF040FD6B4B04461870002840F005816C4864E152
:204B60006B4604226968E0B2FFF704FF00287FF453AF68460BF04CFD614B044618700028CD
:204B800040F0F180634850E16B4610226968E0B2FFF7F0FE00287FF43FAF68460BF054FDEB
:204BA000574B04461870002840F0DD805A483CE16B4610226968E0B2FFF7DCFE00287FF45C
:204BC0002BAF68460BF060FD4D4B04461870002840F0C980514828E168680DF06AFAC0B2A5
:204BE0000BF012FE464B04461870002840F0258168680DF05EFA054620B1012840F01F810F
:204C0000474812E1474809E1474B686893F869400DF04FFA844204D1444800F0DBFD0020AE
:204C20000EE168680DF045FAC0B20BF00DFE344B04461870002840F0E48068680DF039FAF4
:204C4000054640B1012840F08E80394800F0C2FD0BF03EFCF3E0374800F0BCFD0BF038FC22
:204C6000DEE068680DF025FA0446A8680DF021FAC1B2E0B20BF0FEFD214B044618700028B7
:204C800040F0BF802C48D0E068680DF012FAC0B20BF03EFE1A4B04461870002840F0B1803F
:204CA00068680DF006FA0128054606D0022806D0002840F0C4802148B0E02148B5E02148E1
:204CC000B3E068680DF0F5F901284CDC68680DF0F0F9003018BF01200BF03CFE084E044682
:204CE000307088B3012C00F0A3803CE0C4310108300000206C040020BB0400209C390108E2
:204D00006B040020C0390108DA390108FF390108243A0108493A01086F3A0108953A010828
:204D2000DD3A0108BB3A0108881D0020FE3A01084B3B0108183B01087E3B0108A83B0108B6
:204D4000CC3B0108F03B010868680DF0B2F9054618B1012803D13C4867E03C485EE0317850
:204D600057E6032C39D0022153E668680DF0A1F9C0B20BF0FFFD364B04461870002840D106
:204D800068680DF096F90146324853E068680DF090F9003018BF01200BF01AFE2C4B044671
:204DA000187070BB68680DF084F9054618B1012845D1294839E0294830E068680DF079F959
:204DC000C0B20BF025FE224B04461870C8B968680DF06FF9014622482CE068680DF069F962
:204DE0000228C0DC68680DF064F90446A8680DF060F981B2E0B20BF01FFE154B0446187004
:204E000010B1012C14D018E068680DF052F90128054607D0022807D088B9124800F0DAFC03
:204E200028460DE0104800E0104800F0D3FC06E00F48022100F0CEFC01E02146E9E5204632
:204E400009B0BDE8F08300BF3B3C0108143C01086B040020603C0108AB3C0108823C0108FE
:204E6000D33C0108FB3C0108333D0108693D0108C43101082DE9F0430D461646D2F8008072
:204E8000DFF8D09299B0002459F834104046E700FEF78AF940B101341A2CF5D10121AC48AA
:204EA00000F098FC0120D5E1AA4B1F443B79082BF4D8DFE813F0090012002400B9012A009F
:204EC0006F008700D8000001A34800F083FC0A200BF0F5F80BF0FCFABBE1022D40F0A28188
:204EE00070680DF0E6F80BF0F7FA9C4B1870002800F0B081502840F082800146CFE79848D4
:204F000000F068FC0BF01CFBA3E1032D40F08A81B0680DF0CEF8B0F5165F26D00BDCB0F5C5
:204F2000166F1BD0B0F5965F1ED0B0F5966F40F07981002519E0B0F5164F11D005DCB0F516
:204F4000964F40F06F8104250FE0B0F5614F09D0B0F5E13F40F06681072506E0012504E00E
:204F6000052502E0062500E0022570680DF0A1F82946C0B20BF0A8F8784B0128044618704B
:204F800000F0E18004D3022840F06381032186E774485CE1032D40F0458170680DF089F8A5
:204FA0000446B0680DF085F8C1B2E0B20BF0ECF86A4B0446187018B1012800F0C48048E15B
:204FC00069482BE1022D1CD140460DF072F80446A8B970680DF06DF8089008A88DF82440F5
:204FE0000BF06EF9204603AA08A90BF0A7F95B4B0446187018B99DF80C105C48A5E029465E
:205000004DE7032D40F00E81B0680DF052F88DF80C0070680DF04DF80124089008A88DF871
:2050200024400BF04DF903AA08A920460BF086F94A4B0546187048B1A0420CD102214448BE
:2050400000F0C8FB08A80BF065F902E0424800F0C1FB2846FEE002213D4800F0BBFB08A832
:205060000BF058F9DCE0022D40F0DC8070680DF020F80023089008A88DF824300BF09CF9AC
:20508000364E307078B903A908A80BF0B5F90446307040B9BDF80C10354800F09BFB08A84F
:2050A0000BF0A6F9BCE02946294800F093FB08A80BF09EF9F6E6052D40F0B4800023012460
:2050C0007068ADF808308DF80A3003940CF0F1FF0546002854D101461022B0680DF0FEF9BC
:2050E000294610220746F0680DF0F8F9804630690CF0DFFF08AB80B20190009329461FFAB2
:2051000088F3FAB203A80BF0C3F9144B0546187018B1062817D1072116E0164800F05AFB34
:2051200030690CF0C6FF6CB280B2844205F1010507DA18AB1C4414F8401C0F4800F04AFB0B
:20514000EEE70E4883E00221014800F043FB67E0C431010830000020AA4801086B04002008
:20516000A23D0108C13D0108C73D0108F53D01080B3E0108203E01082A3E0108A8480108D5
:2051800070680CF096FF01284CD137693846FEF715F8C307044645D43D46EB1B9C4206DDC9
:2051A00015F8010B0CF0B0FF0028F6D13AE0022394FBF3F40025A5420DF120080CDA37F840
:2051C00015301022002102A8ADF808300DF086F908F805000135EEE710220021B0680DF0BC
:2051E0007DF9102204460021F0680DF077F9054630690CF05EFF80B20190ABB2E2B2CDF821
:205200000080012103A80BF043F9144B0446187018B1062806D1072141E6114800F0DAFA9F
:20522000204617E002213AE60E4800F0D3FA0E4800F0D0FA0D4800F0CDFA0D4800F0CAFA96
:205240000C4800F0C7FA0C4800F0C4FA0B4800F0C1FA002019B0BDE8F08300BF6B040020FA
:20526000AA4801082E3E0108993E0108AF3E0108C53E01080A390108463801087A3801084E
:2052800006292DE9F743144601DD022164E010680CF00FFF202350FA03F3F6D120680CF0A0
:2052A00008FF064660680CF004FF0C28EDDC60680CF0FFFE0628E8DD60680CF0FAFE07461A
:2052C000A0680CF0F6FE0228DFDCA0680CF0F1FE0028DADBA0680CF0ECFE8046E0680CF029
:2052E000E8FE0428D1DCE0680CF0E3FE0028CCDDE0680CF0DEFE814620690CF0DAFEB0F510
:20530000803FC2DA20690CF0D4FE0128BDDD20690CF0CFFE054660690CF0CBFE1428B4DC21
:2053200060690CF0C6FE0028AFDB60690CF0C1FEADB2C0B2019000955FFA89F35FFA88F20F
:20534000F9B230460BF0C0F9044620B9064800F041FA204604E05021044800F03BFA01208F
:2053600003B0BDE8F08300BFDA3E0108C43101082DE9F047204E0546B2468CB001AA02A9F4
:205380002846FFF7CFFA02288146029F0BDC31683846FDF709FF30B131693846FDF704FF64
:2053A00008B102211FE0002556F835103846FDF7FBFE4FEAC508044660B9D0440346D8F859
:2053C000047003AA09F1FF310C48019DB84730B104460CE00135032DE6D1012103E0019BBC
:2053E000002BCBD103E0064800F0F4F9012420460CB0BDE8F08700BF000100206C04002005
:20540000C43101082DE9F047DFF88C908046CA468CB002A901AA4046FFF784FA039C064601
:2054200019492046FDF7C0FE20B118492046FDF7BBFE18B9032E03D0022118E0022EFAE7AC
:20544000002559F835104046FDF7AEFEEF00044648B9574403467D6803AA711E0C48A847E9
:2054600050B104460BE00135032DEAD10121094800F0B0F9012402E0019B002BC9D12046FB
:205480000CB0BDE8F08700BFFA3E0108FF3E01086C040020C431010800010020F0B50D4647
:2054A000012D85B0044611461E46057014D11E4B07275A6942F480425A615A6922F4804282
:2054C0005A611A6A42F480421A621B6A019703F480430293029B16E0032D23D1124B07276B
:2054E0009A69012542F480229A619A6922F480229A615A6A42F480225A625B6A019703F44E
:2055000080230393039B00230222201D00950CF089FD8DE8A00000230222314604F1100041
:205520000CF080FD05B0F0BD003802402DE9F74F04780646012C894601929B469DF830A01D
:205540009DF834809DF838500AD14B494B4A283051644FF480724A490CF044FC25270DE097
:20556000032C40F085804749444A4748C2F8CC104FF4807245490CF035FC27273F4A442158
:2055800001FB0421019B4B60B9F1000F01D1082008E0B9F1010F01D1042003E0B9F1020FBA
:2055A00001D10C2048614421BBF1000F04D101FB0421C1F808B007E0BBF1010F02BF01FB5D
:2055C00004214FF480538B60442303FB0423BAF1020F0CBF4FF400510021D960442303FB3F
:2055E0000423B8F1000F02D1C3F8108007E0B8F1010F0CBF4FF480614FF4C06119614423DA
:205600001DB903FB04239D6114E0012D04D103FB04234FF480710CE0022D04D103FB04232C
:205620004FF4007105E0032D04D103FB04234FF440719961442505FB04240023E36120465B
:2056400004F007F8024600B1FEE70821384603F09BF8384603F0CCF8204633780749012293
:2056600005FB0311403103B0BDE8F04F04F0A3B803B0BDE8F08F00BF003801401817002061
:205680002818002000480040081B00201816002008B572B628300CF0C5FB62B608BD0000BB
:2056A00013B504460C480CF0C1FB50B90A480CF0ACFB02A901F8010D0122204604F051F856
:2056C00002E0252003F0A0F8044B5B6B0BB10020984702B010BD00BFAC1A0020901A00205A
:2056E0001B49F8B5884208D1012200F14001104600F0CAFF0125174E0AE001F188029042CF
:2057000024D10122C831032000F0BEFF124E032506F1280738460CF08FFB104C38B9442342
:2057200003FB0543384693F840100CF061FB736B0BB1012098474420684300F14001214432
:2057400020440122BDE8F84004F035B8F8BD00BF5C170020901A0020E01A002018170020CA
:20576000094B984204D0883398420CD1032000E0012044234343054803F1400101440122BA
:20578000184404F018B870475C17002018170020014804F042B800BF5C1700200B4BD3F8A6
:2057A000CC201168D26849060CD552060AD593F80521222A03D093F80521322A02D13222DF
:2057C00083F80521024804F028B800BF18170020E41700200FB413B50A4C04AB53F8042BD7
:2057E0004FF48071204601930CF0BAFE4FF6FF7382B22146044803F058FF02B0BDE8104038
:2058000004B07047181500205C17002013B50446074B032240F8543B0023019300930CF0A7
:2058200001FC204602B0BDE8104003F03FBD00BF0024014010B49DF8044069B1012902D197
:205840004FF0807108E0022902D14FF0007103E0032902D14FF040718160012112B942623E
:20586000C16200E0416213B9102242630AE0012B02D14FF0805305E0022B0CBF4FF0005375
:205880004FF0405383630CB9C46002E04FF40063C3604FF48073036103238362012303638D
:2058A00010BC03F0A9BA00007FB50446012292FAA2F3B3FA83F39B0003F1844303F58E0302
:2058C000294E1A60022595FAA5F3274A306895FAA5F3B3FA83F303F01F0320FA03F3DB072F
:2058E000F1D5136A204643F400731362136A019103F400730093009B012301A902930623AD
:20590000039303F08FFB22682046936843F00103936003F06FFC4FF0FF31204603F02DFB11
:20592000204603F07CFB226885B2936823F001039360019B103B012B02D8204603F0B6FCD9
:20594000094A136A23F400731362012393FAA3F3B3FA83F328469B0003F1844303F58E03C1
:2059600000221A6004B070BD00380240F0B504461546174B85B05A6A002622F400125A6281
:205980005A6A042742F400125A625A6A02F400120392039A9A6942F400129A619A6922F4B7
:2059A00000129A61A3F5F23340F83C3B02228DE8C00001230CF036FB8DE8C0000123022247
:2059C000294604F148000CF02DFB05B0F0BD00BF00380240104B07B5596A41F40011596281
:2059E0005B6A03F400130193019B059B43600AB9826002E04FF48043836000234FF48042CD
:205A0000C360026143618361C361036202F0D6F903B05DF804FB00BF0038024037B50446B8
:205A200002F057FA2268184B9A4203F5F2339A690AD142F400129A619A6922F400129A61F6
:205A40005A6A22F4001209E042F480029A619A6922F480029A615A6A22F480022046002541
:205A60005A6210F93C1F2B460195009503220CF0D9FA20462B4610F9481F032201950095DF
:205A80000CF0D0FA03B030BD00540040014802F0A9BD00BF281900200A4B07B55A6A032152
:205AA00042F010025A625B6A002203F0100301932B20019B02F068FE2B2002F099FE03B09F
:205AC0005DF804FB003802400F4B4FF47A721B6810B5B3FBF2F30D4C013B0D4A01386360AC
:205AE0000023E06023610821102320462260A36002F051FD23686FF001021A61DA6842F05C
:205B00000102DA6010BD00BF180100202819002000100040014802F01FBD00BF281900209B
:205B2000024B00221B685A62704700BF28190020014802F01EBD00BF2819002070B588B04D
:205B4000002203A90646144802F030FB00220DF10601114803F039F89DF809100F4863297D
:205B60000F4A04BF0124047013880078ADF8043038B119448B4204D108490020643308701C
:205B80001380344601AD0FCD0FC495E8070084E80700304608B070BDC0040020320500200E
:205BA00010050020000000002DE9F04F8BB090B903A8FFF7C3FF9DF81430BDF80C40009307
:205BC0009DF80F509DF810A09DF811809DF815B09DF816300AE0037A04880093C57890F8E6
:205BE00004A090F8058090F809B0837A01934FF000090026002744440FFA89F3A34213DAAE
:205C000013B119F0030F03D133A3D3E9002302E033A3D3E9002330463946FDF7DDFA09F1CB
:205C2000010906460F46E7E7013DB8F1000F08D014F0030805D00024DFF8B490DFF8A880FB
:205C400016E0DFF8B090284C5FFA88F3AB4208F1010821DA19F803006043FDF7F9FB02461E
:205C60000B4630463946FDF7B7FA06460F46EBE7E3B2AB4204F101040EDA19F8030008FB4B
:205C800000F0FDF7E5FB02460B4630463946FDF7A3FA06460F46EBE73C2000FB0BFB009BB6
:205CA0004FF4616000FB03B0019B18440E4B03FB0A00FDF7CDFB32463B46FDF78DFA002287
:205CC0000A4BFDF73BFC0DF077F9FDF7F9FE0BB0BDE8F08FAFF300800000000050287E41B4
:205CE0000000000038137E41805101000040DF3FC03F0108B43F0108F0B5224F89B03C7863
:205D0000002C3CD14FF4800393FAA3F3B3FA83F31D4A012642F823601C4D1D4B284685E847
:205D200018000323AB60EB602C616C61AC6102F035FE062308A901F81A3D224628468DF8BE
:205D400009408DF807608DF8086002F0DDFE224603A928468DF80C408DF80D408DF80E405C
:205D60008DF80F400694079402F067FE22460421292002F009FD292002F03AFD3E7009B01C
:205D8000F0BD00BF3105002080064742C004002000280040000000002DE9F04FA64EA5B048
:205DA0003446374680464FF48071A44802F062FDA24802F03EFB06AD06A8FFF7BFFE0FCDB0
:205DC0000FC495E807009E4D84E807000FCF0FC594E8070085E8070035460DF13C0E0FCDC6
:205DE000AEE80F0094E80700B37A96F8099001933479357A96F803A077799DF804308DF8C8
:205E000040408DF844508DF845908DF83FA08DF841708DF846300DF1580C0FAE8EE807005E
:205E20000FCEACE80F009EE807008CE807008548DFF834B2404528BF4046002808BF01204E
:205E4000FDF706FB76A3D3E90023FDF777FB02460B46CDE904230DF0AFF88046DBF800003C
:205E60001FFA89F68946FDF703FBDDE90423CDE9020140464946FDF7ADF90022724BFDF7A1
:205E80005DFB02460B46DDE90201FDF7A5F9FDF7EFFDB0F5F47FADB2A4B202DACBF800006A
:205EA0000BE0A0F5F470CBF80000494640460022664BFDF791F9804689465BA3D3E9002363
:205EC00040464946FDF7C0FD58B157A3D3E9002340464946FDF77EF9013480468946A4B27A
:205EE000EBE753A3D3E9002340464946FDF7ACFD58B14FA3D3E9002340464946FDF76AF903
:205F0000013580468946ADB2EBE70022504B40464946FDF799FD50B14046494600224C4B5A
:205F2000FDF758F9013680468946B6B2EDE70198FDF79EFA42464B46FDF74EF9FDF7C0FDEA
:205F400080B23B2804D93C38013680B2B6B2F8E73B2E04D93C3E0135B6B2ADB2F8E7172DCB
:205F600004D9183D0134ADB2A4B2F8E727B1394B1B883B449B0701D1374B00E0374B5344B9
:205F800013F8012C5FFA80FC944282BF94FBF2F302FB1344A4B2F6B2EDB2E4B28DF85D7090
:205FA0008DF85BA08DF85C408DF860508DF861608DF862C00DF1740E0DF15808B8E80F0091
:205FC000AEE80F0098E807008DF87970244F8DF877A08DF878408DF87C508DF87D608DF8A3
:205FE0007EC00DF174088EE80700B8E80F000FC79EE8070087E807001A49104800224FF4C4
:2060000080734B62CA614A61CA7081F802C04E700D7081F8204025B0BDE8F04F02F0F0B82E
:20602000FCA9F1D24D620040000000000018F540000000000020AC4014050020C004002093
:20604000601900204206120000408F400000F03F00004E4010050020B43F0108C03F010848
:2060600038050020E00400200C050020094B1A68824206D2084A117819B1002111701A6853
:20608000801A1B68984204D9312882BF014B1B68C01A704734050020080500200020FFF796
:2060A00083BD000010B50020FFF77EFD04460548FFF77AFD8442A4EB000038BF00F1FF30DA
:2060C00010BD00BF6019002010B5044640B10020FFF76AFD8442A0EB040401D9601E10BDA0
:2060E000204610BD0C4B5A68D2074BBF1A680B4B42F0040201224CBF1A601A70084A9368E2
:2061000003F00C03042B03D0936813F00C0F01D100F01EB9704700BF007000400805002076
:206120000038024030B51B4C93B025787DBB01A8FFF704FD2B464FF4807208A9164802F03A
:206140001FF99DF80D209DF80E003C2303FB02009DF80C204FF4616101FB02009DF8225098
:206160009DF8212003FB02539DF8202001FB0233C01AFDF76DF9094B0022FDF7DFF90CF07E
:206180000BFEFDF79DFC064B18600123237013B030BD00BF30050020C00400200040DF3FE3
:2061A0003405002010B5084C204602F0B3FB4FF48071204602F05EFBFFF794FFFFF7B2FF52
:2061C000BDE810400BF0B6BEC004002008B50548FFF700FB04480BF0D9FEBDE8084025202C
:2061E00002F006BBCC3F01089C1F002010B509F01FFF09F0B3FD114B93F86A201C461AB1DA
:20620000012A04D10E4800E00E48FFF7E3FA0E490E4809F04AFFB4F872304FF47A71594318
:206220000A4809F047FF0A490A4809F03EFFBDE8104041F28831074809F03CBF881D002009
:206240000B400108E73F0108FD410008CC1A0020CD6100089C1F002008B507480BF0BAFDA0
:20626000064800F03FFC00F085FDBDE80840002103480BF0F0BE00BF881E0020F41B00207D
:2062800080190020104A1149136810B50C6823441B0EC3710C68136823441B0C83710C6834
:2062A000136823441B0A4371136809680B440371074BDA78C2705A8882701A68120A42707A
:2062C0001B68037010BD00BF6400F81F5000F81F5400F81F1C4A82B0536A1C4943F080532F
:2062E0005362536A03F080530193019B0B6823F4C05343F480530B60012191FAA1F3B3FA36
:2063000083F39B0003F1844303F58E031960022090FAA0F3116890FAA0F3B3FA83F303F0C4
:206320001F0321FA03F313F0010F0749F0D08B6823F0030343F001038B608B6803F00C03E4
:20634000042BFAD102B07047003802400070004030B5634B9BB01D78002D40F0A980012492
:20636000604A1C70604B9A6003F02EFB5F4B0DA85A6A42F080525A625B6A5D4A03F0805311
:206380000593059B136823F4C05343F48053136006230D931023119310940F94169400F022
:2063A00071FE21460F2308A808930A950B950C95099401F0BDF94FF4803306A8079306948E
:2063C00003F042FB01F07CFA4FF47A73B0FBF3F002F028FA042002F03BFA032002F0C2F939
:2063E0002A462946434D4FF0FF3002F0CDF98422294620460BF0CAF808B9EB6D13B94FF4A8
:206400001653EB6500240A23092201213A48FFF745F8029401940094EA6D23460221364850
:20642000FFF784F81B231A2203213448FFF736F80294019400946A6E234602212F48FFF71C
:2064400075F82546FFF758FC24F00403093B012B0BD9A4F11A03012B07D90195009501239E
:20646000032261B20DA80BF0DDFD0134802CEBD1002403F0D1FA03F0D7FA03F0DDFA2346E4
:206480000DA80194009403220D210BF0CBFD23460DA80194009403220E210BF0C3FD184A50
:2064A000184919480BF042F93220FFF70DFB01E0FFF710FF4FF0FF33009306220523072132
:2064C000124800F05DFB00F0EDFB012200230192009361210E480BF0A5FD1BB030BD00BFEA
:2064E000550500200030000800ED00E00038024000700040881D0020901A0020E01A00204A
:20650000334001083A40010841400108F41B00208019002008B503F063FABDE8084002F01E
:20652000A4B90000114B82B01A6A42F001021A621B6A0F4A03F001030193019B136923F4A3
:20654000706313610B4B1A6842F480621A605A6822F480625A609A6842F480629A60DA68C0
:2065600042F48062DA6002B0704700BF003802400000014000040140104B1A6912F4706FDE
:206580001BD11A6922F470621A61D3F8002422F48062C3F80024D3F8042422F48062C3F8BD
:2065A0000424D3F8082422F48062C3F80824D3F80C2422F48062C3F80C2470470000014007
:2065C00010B50F4CFFF7AEFF01F067FF236843F00403236003F0DEFA03F0CEFA0121084663
:2065E00001F068FF236843F004032360FFF772FEFFF7C2FFBDE81040012102480BF02BBD9A
:2066000000700040801900207047000013B5164C0A200BF005FDFFF78BFA636A23F010039B
:20662000636203F0FDFCFFF717FEFFF7C9FFFFF78FFE636A322043F010036362636A03F073
:2066400010030193019BFFF73FFA64200BF0E8FC0648FFF7BFF80648FFF71AF8054B0022A2
:206660001A7002B010BD00BF0038024048400108901A00200013002008B5FFF769FEBDE88B
:206680000840FFF7B3BD0000012873B50E4605D0032829D10122FDF7D5FD25E0134DFFF769
:2066A00047FA2C88B4F5807F0BD11148FFF792F8104B002122461048298019700BF074FDAE
:2066C00012E0631C2B8032780B4B1A55FFF728FAFFF720FA094B5B6C1A68120704D51A68F6
:2066E00001925B680193019B02B070BD5605002052400108540500208C1900201817002092
:2067000038B52F4B2F4C93F86A302F4D002B43D1237853B92D4B0021197029804FF4807210
:206720002848BDE838400BF03FBD2949072220460BF08BFD014650B9244B288018704FF41F
:20674000807220460BF030FD09F0FAFEE2E70322204920460BF079FD0028DBD10D21204632
:206760000BF05DFD20B90A2120460BF058FD70B10A2114480BF053FD002404700D211148F8
:206780000BF04DFD04700F48FEF702F8C2E701211148FFF71FF8BDE710492046FCF704FD72
:2067A000014630B9012009F0EFFC0D48FFF712F8B0E72A8821460120FDF744FDAAE700BFF9
:2067C000881D00208C1900205605002054050020764001082D390108C43101087E40010848
:2067E000824001080268034B9A4202BF024B01221A7070470010004054050020014801F0C5
:20680000F1BE00BFFC1E0020F0B5054687B017461E46002B5ED043880129019301D12E4BBB
:2068200003E002290CBF2D4B2D4B01A902930024022368680493039402F0E8F9032F98BFAD
:20684000284B6A8894BFD95D2146B2F5807F2FD010D8102A2AD007D8042A23D0082A23D0FD
:20686000022A29D1072428E0402A21D0802A1FD0202A0BE0B2F5805F1CD009D8B2F5806FAD
:2068800018D0B2F5006F15D0B2F5007F14D10FE0B2F5804F0ED0B2F5004F0BD0B2F5005FF0
:2068A0000AD107E0082408E0092406E00A2404E0172402E0282400E006242A780A4B02F081
:2068C0000F0243F822602046002201F05DFF204601F08EFF07B0F0BD00001110000021107B
:2068E00000003110C34001085805002090F90030013304D0CAB24188406802F057BA704766
:2069000070B515468AB04A1C04460F9E6ED0017001F00F02012000FA02F211F0F0016280CC
